:0400000052EF00F0CB
:100008001E82FACF04F0FBCF05F0E9CF06F0EACF65
:1000180007F0E1CF08F0E2CF09F0D9CF0AF0DACF44
:100028000BF0F3CF0CF0F4CF0DF0F6CF0EF0F7CFC6
:100038000FF0F8CF10F0F5CF11F01EC012F01FC06E
:1000480013F020C014F021C015F0F2B091EC00F0CC
:1000580015C021F014C020F013C01FF012C01EF00C
:1000680011C0F5FF10C0F8FF0FC0F7FF0EC0F6FF74
:100078000DC0F4FF0CC0F3FF0BC0DAFF0AC0D9FFB4
:1000880009C0E2FF08C0E1FF07C0EAFF06C0E9FFB8
:1000980005C0FBFF04C0FAFF1E921100F7EF00F045
:1000A800D388D38AD38C9B8CF29E000E0F01386FB5
:1000B800000E396F000E3A6F000E3B6F000E3C6F5A
:1000C800000E926E000E936E000E946E000E956EEA
:1000D800000E966E000E806E000E816E000E826E0F
:1000E800000E836E000E846E000E896E000E8A6EFE
:1000F800000E8B6E000E8C6E000E8D6EE8EC00F01C
:10010800090E176E1E0E166EE40EE82EFED7162E7A
:10011800FCD7172EFAD700D01200150E016EC60EA6
:10012800E82EFED7012EFCD700D08AAA03D0016A98
:10013800012A01D0016A8AA803D0026A022A01D0E2
:10014800026AD89002340110036E1D50D8A40DD055
:100158000304D8A403D01B4A1C2A07D0020E031894
:10016800D8A403D01B06D8A01C0603C01DF081CF5D
:1001780081FFF290120054EC00F01BA010D08C808C
:10018800D00E186ECA0EE82EFED7182EFCD78C900B
:10019800D00E186ECA0EE82EFED7182EFCD71BB04C
:1001A800ECD78C80150E186EC60EE82EFED7182ECA
:1001B800FCD700D08C90150E186EC60EE82EFED710
:1001C800182EFCD700D0D9D7F28CF28EF286F180A7
:1001D800F00E626E000E816E000E836E000E956E3C
:1001E8009388938A12001D6A1C6A1B6A1A6A196A24
:0A01F8001E901E920001BFEF00F000
:020000040020DA
:08000000FFFFFFFFFFFFFFFF00
:020000040030CA
:0E000000FF28193CFFBD80FF0FC00FE00F402E
:00000001FF
